:1000000004308A00472C00000A108A100A11820767
:1000100028340C34013406340C106937E931E930E6
:100020006E326F172E000C22E93974173A10A51999
:100030002E196610C3360000353084008313000883
:10004000031930280130F800F701F70B2528F80BC9
:1000500024284A30F700F70B2B282E28800B222863
:1000600008003C1835280612362806168316061294
:100070008312BC183D2886123E28861683168612E7
:1000800083123C19452806134628061783160613C3
:100090008312BC194D2886134E28861783168613A3
:1000A000000086108312861455288316861083124A
:1000B0008610080083160611831206111330F7000C
:1000C000F70B60286328B90803196B2883160611FB
:1000D000831206156F28831606118312061100007D
:1000E00083168610831286103A0EBB000F30BB05B4
:1000F0003B08BC0031203A080F39BB00BC0031205E
:1001000008008316061183120611831686108312C7
:1001100086100F30B5001C20A7012708023C031CE5
:1001200099280330BC0031200530B5001C20A70AF7
:100130008D280230BC003120A7012708033C031C96
:10014000AD2827080420A800B9012808BA005A20C1
:100150000530B5001C20A70A9D288A110A12622CBE
:1001600034080C3A0319BB28063A0319C328023A8B
:100170000319D928DE28B9010130BA005A2002300B
:10018000B5001C20E4280130B5000230B600360B63
:10019000CA28CD284030B700CE28B701013035023B
:1001A000B70737088038B800B9013808BA005A20B4
:1001B000E428B9011030BA005A20E4280130B9000F
:1001C0003408BA005A20E4280800831603178C1755
:1001D0000C140000000083120C087F390319292930
:1001E0000313A70003170D080313A80003170F0834
:1001F0000313A9002708B400B020280803178D00B6
:100200000313290803178F0083168C170C140000A2
:10021000000083120C0D0E0D7F39031929290313D9
:10022000A70003170D080313A80003170F080313F3
:10023000A9002708B400B020280803178D00031375
:10024000290803178F008D0A03198F0A0313E52865
:10025000031703138A110A12692C8E30F70028083D
:10026000F8002708F900FA01F808031D4129790868
:10027000F800F9010830F702F808031D4129F701D9
:1002800049290310F81B4829F90DF80DF7034129F6
:10029000F8138A110A12A62C34080319BC29BC00D1
:1002A00038080319BC29BC0703185D297F30BC023C
:1002B000031CBC290319BC2961298130BC07031820
:1002C000BC293C08F700F801F901FA013508C00023
:1002D000C0173608BF003708BE001830BC00BD018B
:1002E0003E1C8A293B08FA07031C7C29F90A031DD6
:1002F0007C29F80A0319BD173A08F907031C83295A
:10030000F80A0319BD173908B600B6173608F807FA
:100310000318BD17BD0DF80CF90CFA0CC00CBF0C7E
:10032000BE0C0310BC0B6F290130F7070318BC2962
:10033000F81BA129C00DFA0DF90DF80DF7030319EB
:10034000BC29C01FB229FA0A031DB229F90A031DEC
:10035000B229F80A031DB229F80CF90CFA0CF70AB5
:100360000319BC293508BD003908BD06BD1FBA29CF
:10037000F817C029F813C029F701F801F901FA01AB
:1003800008002B080319862AB7002F080319862AAC
:10039000B702031CD0297F30B7070318862AD62955
:1003A0008130B702031C862A0319862A3708F70012
:1003B000F801F901FA01B6012C08B500B5172D08AE
:1003C000B4002E08B3001930B7003208B302031886
:1003D000F9290130B4020318F929B5020318F929E3
:1003E000B6020318F929B60AB50AB40A3208B307E7
:1003F0002B2A3108B4020318142A0130B50203185D
:10040000142AB6020318142AB60AB50A3108B4072A
:100410003208B307031C2B2AB40A031D2B2AB50A82
:10042000031D2B2AB60A2B2A30088038B502031880
:100430002A2A0130B60203182A2AB60A3008803860
:10044000B5073108B407031C082AB50A031D082A9A
:10045000B60A082A7A14B70B2E2A392A0310B30DCC
:10046000B40DB50DB60D0310FA0DF90DF80DB80D5C
:10047000E529381C412A0310F80CF90CFA0CB80CC9
:10048000442AF7030319862AB81B6D2A0310B30DFB
:10049000B40DB50DB60D3208B3020318592A013058
:1004A000B4020318592AB5020318592AB602031CCC
:1004B0007C2A3108B4020318642A0130B5020318FB
:1004C000642AB602031C7C2A30088038B50203185F
:1004D0006D2A0130B602031C7C2AFA0A031D7C2A0D
:1004E000F90A031D7C2AF80A031D7C2AF70A03195E
:1004F000862AF80CF90CFA0C2C08B7003008B7065D
:10050000B71F842AF8178A2AF8138A2AF701F801F4
:10051000F901FA018A110A12CC2C831603178C17E1
:100520000C14000000000318BC2A83120C087F3949
:100530000313A80003170D080313A90003170F08DE
:100540000313AA002808B400B020290803178D005F
:1005500003132A0803178F0083168C170C1400004E
:10056000000083120313A70BB62AB92A83160317B8
:10057000BC2ADA2A8316031783120C0D0E0D7F395D
:100580000313A80003170D080313A90003170F088E
:100590000313AA002808B400B020290803178D000F
:1005A00003132A0803178F008D0A03198F0A0313F8
:1005B000A70B8D2A8A110A12DE2CF701F801F90126
:1005C000FA01BC01BD01BE01BF013B083A04390478
:1005D000380403191B2B2030C0000310B40DB50DD7
:1005E000B60DB70DBC0DBD0DBE0DBF0D3B083F02D6
:1005F000031D042B3A083E02031D042B39083D025B
:10060000031D042B38083C02031C152B3808BC02C0
:100610003908031C390FBD023A08031C3A0FBE0209
:100620003B08031C3B0FBF020314F70DF80DF90D37
:10063000FA0DC00BED2A3C30840083130800040837
:10064000AC002B08AE0003193E2B2A08B70029087E
:10065000B6002808B5002708B400BB01BA01203055
:10066000B9008230B8004C217A08AA007908A900A4
:100670007808A8007708A700AE0B252B2A08B7003A
:100680002908B6002808B5002708B4003408B63C8D
:10069000B400FA013508B800B5170310B50CB60C54
:1006A000B70CFA0CF90CF80CF70CB40B4D2BB81F67
:1006B000642BF709F809F909FA09F70A0319F80A86
:1006C0000319F90A0319FA0A7A08AA007908A90095
:1006D0007808A8007708A700AA1F7B2BAC03AC16EC
:1006E000A709A809A909AA09A70A0319A80A0319A9
:1006F000A90A0319AA0A3B30B3009A30B200CA30E3
:10070000B100B0010A30AE002B080319AC0A2A0868
:10071000B7002908B6002808B5002708B400330838
:10072000BB003208BA003108B9003008B800DD2239
:100730000008A700840A0008A800840A0008A9008D
:10074000840A0008AA00FD308407F708031DBB2BAC
:100750002B0A2E020319BB2B2C080319BD2B0F39B2
:100760002E020319B52B0318ED2BAC1BED2B2C1B04
:10077000BD2B2030E92B2030AC05AC1ECB2BAC12AE
:100780002B08031DAC037708AC002D30B400B0205B
:100790002C08F700AC012B082E02031DD92B77087B
:1007A000AC002E30B400B0202C08F7002030AC058F
:1007B00000303030AC1EE92BAC122B08031DAC030B
:1007C0007708AC002D30B400B0202C08F700AC0145
:1007D0003030F7077708B400B0203308B70032088C
:1007E000B6003108B5003008B400BB01BA01B90148
:1007F0000A30B800DD227A08B3007908B200780820
:10080000B1007708B000AE0B872B8A110A12EB2CCF
:100810002808AF002C08AF06AF1F132C03110310DC
:10082000A81B0314462C2808AF002B08B00027088B
:10083000B0020319212CAF1F462C0308013A830094
:10084000462C2C08B0002808B00203192D2CAF1F2D
:10085000462C0308013A8300462C2D08B0002908D5
:10086000B0020319392CAF1F462C0308013A83004C
:10087000462C2E08B0002A08B0020319452CAF1FE1
:10088000462C0308013A8300462C0310080084011B
:1008900083131F308305193083169900A630980002
:1008A00090308312980083161F149F141F159F11F8
:1008B000FF308312A60083161F149F141F159F116B
:1008C000831281280C3003178D0000308F00031332
:1008D000E5280430A700FA30B5001C20A70B6B2CCC
:1008E000B53090003230B5001C200330A700C8306E
:1008F000B5001C20A70B772C831606108312061454
:100900000630F700F70B822C0000831606108312C6
:100910000610831686158312861D892C8F018E0181
:100920008316861583128619902C0F08FA000E087C
:10093000F7000F087A02031D952C7708A0007A08AB
:10094000A1002108A8002008A7002D297A08B700D7
:100950007908B6007808B5007708B400D130BB003C
:10096000E830BA000E30B9007D30B8004C2177086D
:10097000A7007808A8007908A9007A08AA00AE00A4
:100980007908AD007808AC007708AB00B201B1017E
:10099000B0018030AF00C1297A08A5007908A40011
:1009A0007808A3007708A200133003178D000030E9
:1009B0008F00031008300313A7008D2A0230840033
:1009C0002508AA002408A9002308A8002208A700D7
:1009D0000230AB001F2B2030B400B0204330B400F5
:1009E000B0206D30B400B0203330AA00A9004630EA
:1009F000A8008530A7002508AE002408AD00230814
:100A0000AC002208AB000824031C202D2508AA00F6
:100A10002408A9002308A8002208A700CD30AE00B2
:100A2000CC30AD004B30AC008530AB000824031C4B
:100A3000202D261026088316870083120714262DE2
:100A40002610260883168700831207108316851642
:0A0A50008312851E2B2D752C630008
:02400E00313F40
:00000001FF
;PIC16F876
;CRC=B237  CREATED="02-mai-18 09:52"
